:1000000014C100000C9414130C94E9120C94BE1249
:100010000C9493120C9468120C943D120C941212CE
:100020000C94E71133C1000031C100002FC1000062
:100030002DC100002BC1000029C1000027C1000014
:1000400025C1000023C1000021C100001FC1000024
:100050000C946A130C94CF1319C100000C949D11D9
:1000600015C100000C9404170C94DB160FC100009E
:100070000DC100000BC1000009C1000007C1000054
:1000800005C1000003C1000001C100000C943F1332
:10009000FDC00000FBC00000F9C000000C94C21DB0
:1000A000F5C00000F3C00000F1C00000EFC0000088
:1000B000EDC00000EBC00000E9C00000E7C0000098
:1000C000E5C00000E3C00000E1C00000DFC00000A8
:1000D000DDC00000DBC00000D9C00000D7C00000B8
:1000E000D5C00000FF0F0210F10FF50FFB0F391004
:1000F00006100A101010141018101E1022102610CE
:1001000039102C103010341000002100240027007A
:100110002A002D0030003300010100000401070116
:100120000A0100002200250028002B002E003100CB
:10013000340002010000050108010B01000020004D
:100140002300260029002C002F00320000010000AF
:10015000030106010901050505050705080808084A
:10016000020202020A0A080804040404010101014F
:10017000010101010303030303030303040707074A
:100180000C0C0C0C0C0C0C0C0202020206060606EF
:10019000060606060B0B0B0B0B0B0B0B01021020BC
:1001A00020080810204010204080020102010804AD
:1001B0000201010204081020408080402010080441
:1001C000020180040201804020100804020108049A
:1001D00002010102040810204080010204081020DE
:1001E000408000000A0B02090C0D0E0807030401F1
:1001F00000000000000000000000000000000000FF
:1002000000000000000000000000000000001211CB
:1002100010000000000000000000000000000000CE
:1002200000000000000000003E2711241FBECFEF99
:10023000D1E2DEBFCDBF00E00CBF15E0A0E0B2E030
:10024000E2E6FDE500E00BBF02C007900D92AE3381
:10025000B107D9F72AE0AEE3B5E001C01D92AE3395
:10026000B207E1F711E0C5E1D1E000E006C0219757
:100270000109802FFE010E94AE2BC431D10780E01E
:100280000807A9F70E9493240C94AF2EB9CE91E0F1
:1002900090937B0580918105813039F018F0823090
:1002A00069F0089527E532E00BC029EE32E0309383
:1002B000EF052093EE0580937100089523E933E064
:1002C0003093EF052093EE0590937100089582E23C
:1002D0000E943A1761E0682782E20C943A10CF93AB
:1002E00010926605CFE160E08C2F0E943A10CF5F3C
:1002F000C233C9F7CF910895CF93DF931F921F9216
:10030000CDB7DEB70E94BF139A83898368EE73E08E
:1003100080E090E00E94651180915E05811109C026
:1003200085ED92E090935D0580935C0581E080937C
:100330005E0580915405811109C081ED91E0909393
:1003400053058093520581E08093540580914A05BE
:1003500081110FC080915C0590915D0597FD01961C
:1003600095958795909349058093480581E0809302
:100370004A058091400581110FC0809152059091EE
:10038000530597FD01969595879590933F0580932A
:100390003E0581E0809340052091020230910302E6
:1003A0006090480570904905620E731E7092490571
:1003B00060924805809100029091010240903E05B4
:1003C00050903F05480E591E50923F0540923E0501
:1003D00040915C0550915D05641675063CF03195C1
:1003E0002195310930930302209302022CE4621616
:1003F00071046CF4209102023091030237FF03C0B4
:100400003195219531093093030220930202209106
:10041000520530915305421653063CF09195819553
:100420009109909301028093000280E148165104E3
:100430006CF4809100029091010297FF03C09195A6
:100440008195910990930102809300020E942120DE
:100450008BE8882E83E0982EA12CB12CC12CD12CB6
:1004600094E0E92EF12C00E91EEE20E930E0A20133
:10047000B3018EE090E00E94DD200E94712084E0B4
:100480000E943A17892B61F4809106069091070625
:100490000E94D31480910806909109060E941915B4
:1004A00062E370E0CE0101960E94911575CFCF9363
:1004B000DF93C0916605C1113BC0E091820584E0E5
:1004C000E89FF0011124EB56FD4FD08161E08D2FA4
:1004D0000E943A1061E087E20E943A1061E088E2EF
:1004E0000E943A1080917102909172020E945A11FA
:1004F00060E08D2F0E943A1060E087E20E943A107F
:1005000060E088E20E943A10809183059091840512
:10051000A0918505B09186050296A11DB11D80931D
:10052000830590938405A0938505B093860548C004
:10053000CE3151F4E091820584E0E89FF00111246E
:10054000EB56FD4FD1812BC0CC33F1F4E091820505
:1005500084E0E89FF0011124EB56FD4FD28161E069
:100560008D2F0E943A1061E087E20E943A1080913C
:100570007102909172020E945A1160E08D2F0E94C8
:100580003A1060E087E217C0CA35C1F4E0918205F5
:1005900084E0E89FF0011124EB56FD4FD38161E028
:1005A0008D2F0E943A1080917102909172020E94E8
:1005B0005A1160E08D2F0E943A1002C0C83721F016
:1005C000CF5FC093660502C010926605DF91CF91A0
:1005D0000895CF93DF93C0916605C1113BC0E091B0
:1005E000820586E0E89FF0011124E356FD4FD0819B
:1005F00061E08D2F0E943A1061E088E20E943A107B
:1006000061E087E20E943A1080917102909172023B
:100610000E945A1160E08D2F0E943A1060E088E23B
:100620000E943A1060E087E20E943A1080918305B0
:1006300090918405A0918505B09186050296A11D33
:10064000B11D8093830590938405A0938505B09395
:10065000860560C0C43151F4E091820586E0E89FD0
:10066000F0011124E356FD4FD18143C0C83251F44B
:10067000E091820586E0E89FF0011124E356FD4FEA
:10068000D28137C0CC33F1F4E091820586E0E89F57
:10069000F0011124E356FD4FD38161E08D2F0E94BC
:1006A0003A1061E087E20E943A10809171029091C5
:1006B00072020E945A1160E08D2F0E943A1060E091
:1006C00087E223C0C03551F4E091820586E0E89FBF
:1006D000F0011124E356FD4FD4810BC0C436C1F4A0
:1006E000E091820586E0E89FF0011124E356FD4F7A
:1006F000D58161E08D2F0E943A1080917102909116
:1007000072020E945A1160E08D2F0E943A1002C0BE
:10071000C83721F0CF5FC093660502C0109266050E
:10072000DF91CF910895FF920F931F93CF93DF93A3
:10073000C0916605C11146C00091820588E0089FFE
:100740008001112405541D4FF801F08061E08F2DC8
:100750000E943A10F801D48161E08D2F0E943A1076
:1007600061E088E20E943A1061E087E20E943A105C
:1007700080917102909172020E945A1160E08F2D57
:100780000E943A1060E08D2F0E943A1060E088E2EB
:100790000E943A1060E087E20E943A10809183053F
:1007A00090918405A0918505B09186050296A11DC2
:1007B000B11D8093830590938405A0938505B09324
:1007C000860575C0CE3109F500918205F8E00F9FCE
:1007D0008001112405541D4FF801F18061E08F2D37
:1007E0000E943A10F801D58161E08D2F0E943A10E5
:1007F00080917102909172020E945A1160E08F2DD7
:100800000E943A1060E08D2F4DC0CC3349F5009125
:100810008205F8E00F9F8001112405541D4FF80157
:10082000F28061E08F2D0E943A10F801D68161E0DC
:100830008D2F0E943A1061E087E20E943A10809169
:100840007102909172020E945A1160E08F2D0E94F5
:100850003A1060E08D2F0E943A1060E087E222C0DB
:10086000CA3519F500918205F8E00F9F8001112427
:1008700005541D4FF801D38161E08D2F0E943A107D
:10088000F801178161E0812F0E943A108091710276
:10089000909172020E945A1160E08D2F0E943A10CE
:1008A00060E0812F0E943A1002C0C83721F0CF5F6C
:1008B000C093660502C010926605DF91CF911F912B
:1008C0000F91FF900895811524E0920714F08FEFA7
:1008D00093E0DC0197FF02C0A0E0B0E029E530E042
:1008E0000E94B62B0E94642A20E030EC4FE754E4CB
:1008F0000E94C92920E030E047E053E40C946129CC
:1009000008950E94351127EC32E1DC010E94B62BDC
:100910002FEF33E040E050E00E941329309371053F
:1009200020937005C90168EE73E00E949B2B9F9392
:100930008F937F936F9387E993E09F938F9387E6DD
:1009400095E09F938F930E94E62B8DB79EB70896F4
:100950000FB6F8949EBF0FBE8DBF87E695E0089551
:10096000CF92DF92EF92FF920F931F93CF93DF937B
:10097000EC016B0160E08C810E943A107E0186E000
:10098000E80EF11C00E010E00C151D0594F4C80100
:100990008F739927892B49F08FEF0E94F31EF7017F
:1009A00081937F010F5F1F4FEFCF8D810E943A1718
:1009B000F1CF61E08C810E943A108D810E943A173C
:1009C0000197D9F3DF91CF911F910F91FF90EF9095
:1009D000DF90CF900895CF93DF93EC0162E070E059
:1009E000BFDF8E819F81DF91CF910895AF92BF923B
:1009F000CF92DF92EF92FF920F931F93CF93DF93EB
:100A00001F92CDB7DEB77C01B62E6A0160E0FC0113
:100A1000848179830E943A108C2D0E94F31E8D2DC3
:100A20000E94F31E0B2D7981172FA12CB12CAC1431
:100A3000BD0499F0C5018F739927892B29F4F7011B
:100A400085810E943A17F9CFF80181918F010E94A8
:100A5000F31EFFEFAF1ABF0AEACF61E0F70184810E
:100A60000F90DF91CF911F910F91FF90EF90DF904A
:100A7000CF90BF90AF900C943A10CF93DF93CDB747
:100A8000DEB728970FB6F894DEBF0FBECDBF68EE75
:100A900073E080E090E00E9465110E94BF13988788
:100AA0008F838091E40581110BC086E792E00E945C
:100AB0003C219093E3058093E20581E08093E40577
:100AC0008091DA0581110BC08EE291E00E943C21F9
:100AD0009093D9058093D80581E08093DA058091C1
:100AE000D00581110BC08CE291E00E943C219093D3
:100AF000CF058093CE0581E08093D0058091C60517
:100B000081110BC08AE291E00E943C219093C505BF
:100B10008093C40581E08093C6058091BC05811156
:100B20000BC08FE992E00E943C219093BB0580931B
:100B3000BA0581E08093BC058091B20581110BC09C
:100B400080E193E00E943C219093B1058093B00531
:100B500081E08093B2058091A80581110BC084E4E7
:100B600092E00E943C219093A7058093A60581E026
:100B70008093A80580919E0581110BC08BE591E0C3
:100B80000E943C2190939D0580939C0581E0809379
:100B90009E058091940581110BC088E992E00E9426
:100BA0003C21909393058093920581E08093940576
:100BB00080918A0581110BC081E190E00E943C2167
:100BC000909389058093880581E080938A0562EB84
:100BD000662E63E0762E74E1472E76E0572EECE722
:100BE0002E2EE5E03E2E0E94212020E731E03A83C0
:100BF00029831C821B821E821D8246E050E0BE01BA
:100C00006F5F7F4F85E199E0F1DE85E199E0E3DEFA
:100C100080918705882309F4C7C1809173028130D0
:100C200079F048F0823021F1833039F59CEA892E41
:100C300093E0992E09C050EA852E53E0952E04C00A
:100C400043EA842E43E0942EA12CB12CC12CD12C4C
:100C500034E0E32EF12C0FEF1FEF2FEF30E04CEDDF
:100C600050E066E970E08DE090E00E94DD2007C072
:100C700027EA822E23E0922EE7CF10927302209172
:100C80001F063091200640E050E060E67AEE80E0FA
:100C900090E00E9413295F934F933F932F937F928D
:100CA0006F925F924F920E94E62B14E1812E16E024
:100CB000912EA12CB12CC12CD12C04E0E02EF12CD2
:100CC00000E017ED2FEF30E04CE850E06AE872E00A
:100CD00081E190E00E94DD2085EB882E83E0982E54
:100CE00000E91EEE20E930E040E550E06AE872E0FD
:100CF0008DE090E00E94DD200FB6F894DEBF0FBEBD
:100D0000CDBF8091830590918405A0918505B09118
:100D1000860581309048A105B10540F01092830509
:100D200010928405109285051092860580918605A3
:100D30008F93809185058F93809184058F93809107
:100D400083058F937F926F925F924F920E94E62B62
:100D500054E1852E56E0952EA12CB12CC12CD12C1E
:100D600064E0E62EF12C00E017ED2FEF30E04CE8C8
:100D700050E066E871E081E190E00E94DD2079ECCE
:100D8000872E73E0972E00E91EEE20E930E040E563
:100D900050E066E871E08DE090E00E94DD208FE594
:100DA00090E00E9473218091710290917202092E4D
:100DB000000CAA0BBB0BBF93AF939F938F937F92B3
:100DC0006F925F924F920E94E62BE4E18E2EE6E056
:100DD0009E2E00E017ED2FEF30E04CE850E066E982
:100DE00070E081E190E00E94DD20F9ED8F2EF3E0CC
:100DF0009F2E00E91EEE20E930E040E550E066E974
:100E000070E08DE090E00E94DD208091820590E00E
:100E10000196092E000CAA0BBB0BBF93AF939F93B7
:100E20008F937F926F925F924F920E94E62BA4E184
:100E30008A2EA6E09A2E00E017ED2FEF30E044E571
:100E400051E066E970E081E190E00E94DD20BDEEB6
:100E50008B2EB3E09B2E00E91EEE20E930E048E146
:100E600051E066E970E08DE090E00E94DD2086E6CA
:100E700090E00E94732140E951E06BEB71E08091BA
:100E8000C4059091C5050E943D2087E690E00E9430
:100E9000732140E951E06FEF71E08091CE059091B0
:100EA000CF050E943D2088E690E00E94732140E932
:100EB00051E064E472E08091D8059091D9050E94D8
:100EC0003D2080E690E00E947321A0909205B090B2
:100ED000930548EC50E062E370E0C5010E943D20BC
:100EE00081E690E00E9473210091880510918905A8
:100EF00048EC50E06DEC70E0C8010E943D2082E6B5
:100F000090E00E94732140E951E062E370E0C50186
:100F10000E943D2083E690E00E94732140E951E069
:100F20006DEC70E0C8010E943D200FB6F894DEBF62
:100F30000FBECDBF809181058130C1F068F0823055
:100F400009F04EC18090820530E1839EC0011124DA
:100F50009C012B5F3D4F13C08090820528E0829E4C
:100F6000C00111249C012F593D4F09C0809082057A
:100F70003CE0839EC00111249C012B5D3D4F490143
:100F8000A12CB12CC12CD12C44E0E42EF12C00E09A
:100F900017ED2FEF30E044E551E066E871E08FE0B7
:100FA00090E00E94DD201CC181E090E00E9473214E
:100FB00086E390E0A6DC4C01A12CB12CC12CD12CF5
:100FC00004E0E02EF12C00E017ED2FEF30E04CE8CC
:100FD00050E066E970E081E190E00E94DD208AEF58
:100FE000882E83E0982E00E91EEE20E930E040E5EF
:100FF00050E066E970E08DE090E00E94DD2082E044
:1010000090E00E94732187E390E07BDC4C0100E0DC
:1010100017ED2FEF30E04CE850E066E871E081E139
:1010200090E00E94DD2096E0892E94E0992E00E960
:101030001EEE20E930E040E550E066E871E08DE02A
:1010400090E00E94DD2083E090E00E94732188E31D
:1010500090E057DC4C0100E017ED2FEF30E04CE85A
:1010600050E06AE872E081E190E00E94DD2022E138
:10107000822E24E0922E00E91EEE20E930E040E5C9
:1010800050E06AE872E08DE090E00E94DD2084E0AC
:1010900090E00E94732189E390E033DC4C0100E092
:1010A00017ED2FEF30E046E351E066E970E081E1B3
:1010B00090E00E94DD203EE1832E34E0932E00E993
:1010C0001EEE20E930E04AEF50E066E970E08DE086
:1010D00090E00E94DD208CE590E00E9473218091D9
:1010E00085021F921F921F928F937F926F925F9241
:1010F0004F920E94E62B0FB6F894DEBF0FBECDBF15
:1011000080918005811105C000E010E02FEF30E0F4
:1011100004C000E017ED2FEF30E0F4E18F2EF6E091
:101120009F2EA12CB12CC12CD12CA4E0EA2EF12CA5
:1011300044EA51E068E970E08FE090E00E94DD2031
:10114000B9E28B2EB4E09B2E00E91EEE20E930E0E0
:1011500042E751E060EA70E08DE090E00E94DD201F
:1011600085E090E00E9473218AE390E0CADB4C01A5
:1011700000E017ED2FEF30E046E351E066E871E064
:1011800081E190E00E94DD2016E3812E14E0912E93
:1011900000E91EEE20E930E04AEF50E066E871E039
:1011A0008DE090E00E94DD208DE590E00E947321AB
:1011B00040E951E062E370E08091920590919305DF
:1011C0000E943D208EE590E00E94732140E951E0AD
:1011D0006DEC70E080918805909189050E943D201A
:1011E00080910402813079F048F0823021F183301F
:1011F00039F540E6842E44E0942E09C0E2E48E2EB8
:10120000E4E09E2E04C07BE4872E74E0972EA12C90
:10121000B12CC12CD12C64E0E62EF12C00E91EEE9D
:1012200020E930E04AEF50E06AE872E08DE090E0BB
:101230000E94DD2007C055E5852E54E0952EE7CFAE
:1012400010920402809120068F9380911F068F9345
:101250007F926F923F922F920E94E62B8BE590E057
:101260000E9473212CE7822E25E0922EA12CB12C16
:10127000C12CD12C34E0E32EF12C00E017ED2FEF40
:1012800030E046E351E06AE872E081E190E00E94DC
:10129000DD2084E690E00E947321109187050F9075
:1012A0000F900F900F900F900F90112329F08091C5
:1012B000BA059091BB0504C08091E2059091E305C9
:1012C00040E951E06AE872E00E943D2085E690E046
:1012D0000E947321112329F08091A6059091A70502
:1012E00004C080919C0590919D0540E951E06EE518
:1012F00071E00E943D2080917B058823B9F08CE647
:10130000882E84E0982EA12CB12CC12CD12C96E0F3
:10131000E92EF12C00E010E02FEF30E046ED51E037
:101320006AE070E08CE090E00E94DD200E94712075
:101330008090890290908A02A0908B02B0908C02DB
:1013400002E0B594A794979487940A95D1F7909169
:10135000040241E050E0992321F040E050E0913058
:1013600019F020E030E002C02AE030E0420F531FC5
:10137000923019F020E030E002C024E630E0240F83
:10138000351F933019F080E090E002C088EE93E0C2
:10139000820F931F889DB001899D700D989D700DDF
:1013A00011247093200660931F0680917905909117
:1013B0007A0568177907B9F184E790E40E94872BD2
:1013C00026E0269FC001279F900D1124A0E0B0E0E9
:1013D00013E0880F991FAA1FBB1F1A95D1F700971A
:1013E00021E0A207B10520F421E020930C060AC0F9
:1013F00022E020930C06F3E0B695A7959795879584
:10140000FA95D1F790930B0680930A0680910A060D
:1014100090910B06909397008093960080910C0614
:1014200080618093910080911F0690912006909397
:101430007A05809379052DE136E043E755E065E7CD
:1014400075E087E795E00E94451F80911D06909109
:101450001E068036910509F417C1BCF48C35910540
:1014600009F450C05CF4813091050CF454C286300C
:10147000910534F18B35910591F14DC28E35910571
:1014800009F48CC00CF45DC0ECC08436910509F4FD
:10149000A8C13CF48236910509F460C10CF428C15E
:1014A00073C18636910509F4E7C10CF4BBC18736D8
:1014B000910509F4F7C18836910509F40DC22BC2D4
:1014C0006EE170E089E190E00E948D200E94BB20D7
:1014D0000E946F018091040690910506C4C16EE1DF
:1014E00070E089E190E00E948D200E94BB208091F5
:1014F00004028F5F843019F08093040297C0109229
:10150000040294C06EE170E089E190E00E948D20B9
:101510000E94BB208091800591E0892780938005FF
:10152000882349F027E631E03093ED052093EC0560
:1015300090936F007BC010926F0060E082E29AD5BA
:1015400075C06EE170E089E190E00E948D200E94FC
:10155000BB202091850221502093850230E040E09D
:1015600050E060E271EA87E090E00E941329BA013E
:10157000A901E3E0440F551F661F771FEA95D1F7D5
:101580004115510531E06307710508F455C0411557
:10159000510588E06807710560F556C06EE170E09E
:1015A00089E190E00E948D200E94BB20209185025D
:1015B0002F5F2093850230E040E050E060E271EA66
:1015C00087E090E00E941329BA01A90133E0440F9B
:1015D000551F661F771F3A95D1F74115510591E0C8
:1015E0006907710548F14115510528E06207710549
:1015F00058F183E080930F06DB01CA0146E0B695FF
:10160000A795979587954A95D1F790930E06809365
:101610000D0680910D0690910E06909387008093A1
:10162000860080910F068061809381006EE571E0F5
:1016300080E090E04AD66FC181E080930F0650931E
:101640000E0640930D06E5CF82E080930F06DB0186
:10165000CA0123E0B695A795979587952A95D1F766
:10166000D4CF6EE170E089E190E00E948D200E946D
:10167000BB20809173028F5F843019F080937302D6
:10168000D5CF10927302D2CF6EE170E089E190E085
:101690000E948D200E94BB20809171029091720265
:1016A000009721F23091730261E070E0332321F062
:1016B00060E070E0313019F040E050E002C04AE0F4
:1016C00050E0640F751F323019F040E050E002C066
:1016D00044E650E0460F571F333019F020E030E069
:1016E00002C028EE33E0240F351F821B930B31C05C
:1016F0006EE170E089E190E00E948D200E94BB20A5
:1017000060917102709172029091730241E050E019
:10171000992321F040E050E0913019F020E030E0D2
:1017200002C02AE030E0420F531F923019F020E04F
:1017300030E002C024E630E0240F351F933019F06A
:1017400080E090E002C088EE93E0820F931F860F46
:10175000971F909372028093710268CF6EE170E0E0
:1017600089E190E00E948D200E94BB206EE571E02F
:1017700080E090E0AAD580918205882309F4CBC04F
:10178000815080938205C7C06EE170E089E190E0EE
:101790000E948D200E94BB20109182051F5F109334
:1017A00082056EE571E080E090E08FD58091810543
:1017B000123020F0811102C01092820590918205B2
:1017C000953020F0813011F41092820590918205BD
:1017D000923008F4A0C0823009F09DC010928205BA
:1017E0009AC080918705882319F01092870503C05D
:1017F00081E0809387056CE271E080E090E065D540
:101800006EE170E089E190E00E948D200E94BB2093
:1018100080918705882319F00E9447017CC00E94AF
:101820006F0179C06EE170E089E190E00E948D2047
:101830000E94BB2080918705882389F090917205D2
:1018400081E0892780937205882331F3109271001B
:1018500010927B0586E990E00E946E155CC0809135
:101860000206909103060E94D3148091060690917F
:1018700007060E9419154FC06EE170E089E190E003
:101880000E948D200E94BB2080918705882309F447
:1018900040C00E946F01109281051092820587E579
:1018A00092E02FC06EE170E089E190E00E948D200F
:1018B0000E94BB2080918705882359F10E946F0107
:1018C00081E0809381051092820529EE32E0309309
:1018D000EF052093EE051AC06EE170E089E190E01B
:1018E0000E948D200E94BB2080918705882389F06B
:1018F0000E946F0182E0809381051092820583E946
:1019000093E09093EF058093EE0581E08093710062
:1019100002C01092710084E00E943A17892B89F46A
:1019200060ED77E080E090E0D0D48091080690915F
:1019300009060E94D31480910606909107060E9422
:10194000191564E670E0CE0107960E9491154BC907
:101950003FB7F8948091FA059091FB05A091FC05A2
:10196000B091FD0526B5A89B05C02F3F19F0019643
:10197000A11DB11D3FBFBA2FA92F982F8827820F15
:10198000911DA11DB11DBC01CD0142E0660F771F65
:10199000881F991F4A95D1F708950895E09132085C
:1019A000F09133088081811103C08FEF9FEF0CC04D
:1019B000E0913208F09133080580F681E02D068031
:1019C000F781E02D82819381909301068093000638
:1019D0000895CF93DF93FC01A085B1858281938127
:1019E00024813581EC013D832C83C481D5819B8387
:1019F0008A8311968D919C9112978E179F0721F4DF
:101A00001296DC93CE931197118610868C9181509B
:101A10008C93DF91CF9108950F931F93CF93DF9312
:101A20008C01FB01808191818F3F2FEF920721F480
:101A3000E801AF81B8850EC0D801139612962D919A
:101A40003C911397E901488159818417950710F05B
:101A5000D901F4CF12968D919C9113979383828331
:101A6000EC01FD83EC83B583A4831396FC93EE9382
:101A7000129711870087F80180818F5F8083DF9143
:101A8000CF911F910F910895CF93DF93E091750847
:101A9000F0917608938382832091FE053091FF05B3
:101AA0008217930768F460917508709176088091A9
:101AB0003008909131086E5F7F4FDF91CF91ACCFAE
:101AC000EC016091750870917608809132089091D0
:101AD00033086E5F7F4FA0DF809100069091010672
:101AE000C817D90720F4D0930106C0930006DF91F0
:101AF000CF9108950F931F93CF93DF9300D0CDB76D
:101B0000DEB78C0184E09AE09A8389836B8343E09B
:101B100050E0BE016F5F7F4FC8010E94F604C8010C
:101B20000E94EB040F900F900F90DF91CF911F91C7
:101B30000F910895CF92DF92EF92FF920F931F9330
:101B4000CF93DF93CDB7DEB7C650D1400FB6F89430
:101B5000DEBF0FBECDBF6C0180E09AE09A8389831F
:101B60006B834C832D833E837901A901B801CE019B
:101B700007960E94C02B47E050E04C0F5D1F4E0DB2
:101B80005F1DBE016F5F7F4F461B570BC6010E9452
:101B9000F604C6010E94EB04CA5FDE4F0FB6F8944C
:101BA000DEBF0FBECDBFDF91CF911F910F91FF9090
:101BB000EF90DF90CF9008956F927F928F929F92D7
:101BC000AF92BF92CF92DF92EF92FF920F931F934B
:101BD000CF93DF93CDB7DEB75C017A018DB69EB6A9
:101BE000CA0105964DB75EB7481B590B0FB6F8945E
:101BF0005EBF0FBE4DBF8DB79EB701966C0182E0F0
:101C0000EDB7FEB781838AE0F60181836283E382C8
:101C10006DB67EB6F6E06F0E711CF601F482A70178
:101C2000B901C3010E94C02BA3014E0D5F1D4C19C9
:101C30005D09B601C5010E94F60464E070E0C501CB
:101C40000E94B004F501818590E0982F88272085B7
:101C5000822BF80191838083F501868197810FB6ED
:101C6000F8949EBE0FBE8DBEDF91CF911F910F9154
:101C7000FF90EF90DF90CF90BF90AF909F908F90AC
:101C80007F906F9008958091F305882321F081E083
:101C90008093F20508951092F205E0917508F09195
:101CA00076080788F08DE02D80819181A281B38133
:101CB000853A954AA54AB54AE9F484819581A68179
:101CC000B781853A954AA54AB54AA1F480859185A0
:101CD000A285B385853A954AA54AB54A59F48485C3
:101CE0009585A685B785853A954AA54AB54A11F4E2
:101CF00099E011C0809175089091760880917508DF
:101D00009091760883E090E00E948D1D8091730889
:101D1000815080937308E09173089E9FF001112415
:101D2000E15BF74F8081811106C0809173088111BA
:101D3000EDCF0E94BF1D8091730890E049E0489F5D
:101D40009001499F300D1124F901E15BF74FA1810A
:101D5000B28112960D90BC91A02DB283A1832E5A10
:101D6000374FA217B30731F412962D913C91139778
:101D70003283218329E0289FF001299FF00D11244F
:101D8000E15BF74F0180F281E02D8681978190938E
:101D90007608809375080895CF92DF92EF92FF92B4
:101DA0000F931F93CF93DF938091F305811196C01A
:101DB0008091FE059091FF0501969093FF05809319
:101DC000FE05E090FE05F090FF05E114F104F1F44A
:101DD000E0913208F0913308808181110E94BF1D8B
:101DE0008091320890913308209130083091310869
:101DF0003093330820933208909331088093300851
:101E00008091F1058F5F8093F105C8DD8091000618
:101E100090910106C0E0E816F90608F44DC0D9E03B
:101E2000E0913208F09133088081811103C08FEF77
:101E30009FEF11C0E0913208F09133080580F681E0
:101E4000E02D06811781D80112968D919C911397F0
:101E5000E816F90628F490930106809300062CC03A
:101E60006801B2E0CB0ED11CC601B3DDF801848954
:101E70009589892B19F0C8010C96ABDDD8015696CF
:101E80009C9180917308891710F490937308D99FDF
:101E9000C0011124B601815B974F0E945B1DE09148
:101EA0007508F0917608D80156969C918689981706
:101EB00008F4B6CFC1E0B4CFE0917508F091760890
:101EC000E689B9E0EB9FF0011124E15BF74F8081D7
:101ED000823008F0C1E08091F00506C08091F005E5
:101EE0008F5F8093F005C0E08091F2058111C1E021
:101EF0008C2FDF91CF911F910F91FF90EF90DF908A
:101F0000CF9008950F920FB6F8940F920BB60F92E0
:101F10000CB60F921F9211242F923F924F925F9214
:101F20006F927F928F929F92AF92BF92CF92DF92E9
:101F3000EF92FF920F931F932F933F934F935F93D3
:101F40006F937F938F939F93AF93BF93CF93DF93C1
:101F5000EF93FF93A0917508B09176080DB60D929E
:101F60000EB60D9219DF81118EDEA0917508B09129
:101F70007608CD91CDBFDD91DEBFFF91EF91DF916E
:101F8000CF91BF91AF919F918F917F916F915F9111
:101F90004F913F912F911F910F91FF90EF90DF9004
:101FA000CF90BF90AF909F908F907F906F905F90F9
:101FB0004F903F902F901F900F900CBE0F900BBE34
:101FC0000F900FBE0F90089590E0FC013197E23121
:101FD000F10508F04EC08827EE58FF4F8F4F0C9444
:101FE000AE2B809180008F7703C0809180008F7D21
:101FF00080938000089580918000877FF9CF84B519
:102000008F7702C084B58F7D84BD08958091B00024
:102010008F7703C08091B0008F7D8093B0000895CA
:10202000809190008F7707C0809190008F7D03C0D2
:1020300080919000877F8093900008958091A00008
:102040008F7707C08091A0008F7D03C08091A00092
:10205000877F8093A0000895809120018F7707C02B
:10206000809120018F7D03C080912001877F809324
:10207000200108951F93CF93DF93282F30E0F901BB
:10208000EE51FE4F8491F901E456FE4FD491F901CF
:10209000EA5AFE4FC491CC23C1F0162F811194DF70
:1020A000EC2FF0E0EE0FFF1FEE5DFE4FA591B49117
:1020B0008FB7F894111105C09C91ED2FE095E9239D
:1020C00002C0EC91ED2BEC938FBFDF91CF911F916C
:1020D00008954F925F926F927F928F929F92AF92EC
:1020E000BF92CF92DF92EF92FF920F931F93CF9305
:1020F000DF93CDB7DEB75C016A018DB69EB6CA012B
:1021000007964DB75EB7481B590B0FB6F8945EBFE4
:102110000FBE4DBF8DB79EB701963C0181E0EDB774
:10212000FEB781838AE0F30181836283C382D48214
:1021300025834DB65EB6F8E04F0E511CF301368391
:10214000A601B801C2010E94C02BA2014C0D5D1D69
:1021500046195709B301C5010E94F60460E0F50174
:10216000848188DFF501858185D6892BD9F30E948A
:102170006B24C82E0E946B24D12CD82A370102E090
:1021800010E07601F2E0EF0EF11C0E151F0588F449
:10219000C8018F739927892B41F00E946B24F301AA
:1021A00081933F010F5F1F4FF0CFF501858162D60C
:1021B000F2CF61E0F50184815DDFF50185815AD6BA
:1021C0000197D9F3C6010FB6F8949EBE0FBE8DBE1F
:1021D000DF91CF911F910F91FF90EF90DF90CF9003
:1021E000BF90AF909F908F907F906F905F904F9037
:1021F0000895CF93DF9390E0FC01E456FE4F2491C5
:10220000FC01EA5AFE4F8491882361F190E0880F27
:10221000991FFC01E85FFE4FC591D491FC01EE5D72
:10222000FE4FA591B491611109C09FB7F8948881C0
:10223000209582238883EC912E230BC0623061F4B9
:102240009FB7F8943881822F809583238883EC91FF
:102250002E2B2C939FBF06C08FB7F894E8812E2BAE
:1022600028838FBFDF91CF910895863308F086537E
:1022700090917B00282F2870977F922B90937B0062
:1022800087702091740290E4299F90011124822B81
:1022900080937C0080917A00806480937A008091A2
:1022A0007A0086FDFCCF809178002091790090E043
:1022B000922B08958230910538F0880F991F880F6E
:1022C000991F05970197F1F708958F929F92AF920A
:1022D000BF92CF92DF92EF92FF926B017C0138DBCD
:1022E0004B015C01C114D104E104F104E9F030DBDD
:1022F000DC01CB0188199909AA09BB09883E9340E2
:10230000A105B10578F321E0C21AD108E108F1086E
:1023100088EE880E83E0981EA11CB11CC114D10464
:10232000E104F10421F7DECFFF90EF90DF90CF9032
:10233000BF90AF909F908F9008951F920F920FB60D
:102340000F9211242F933F938F939F93AF93BF933B
:102350008091F6059091F705A091F805B091F905E7
:102360003091F50523E0230F2D3720F40196A11DB0
:10237000B11D05C026E8230F0296A11DB11D2093B3
:10238000F5058093F6059093F705A093F805B093B3
:10239000F9058091FA059091FB05A091FC05B0919B
:1023A000FD050196A11DB11D8093FA059093FB05D3
:1023B000A093FC05B093FD05BF91AF919F918F91C4
:1023C0003F912F910F900FBE0F901F9018951F9265
:1023D0000F920FB60F9211240BB60F922F933F93CB
:1023E0004F935F936F937F938F939F93AF93BF931D
:1023F000EF93FF93E0918302F09184021995FF918E
:10240000EF91BF91AF919F918F917F916F915F916C
:102410004F913F912F910F900BBE0F900FBE0F90D9
:102420001F9018951F920F920FB60F9211240BB6A2
:102430000F922F933F934F935F936F937F938F935D
:102440009F93AF93BF93EF93FF93E0918102F0913D
:1024500082021995FF91EF91BF91AF919F918F915A
:102460007F916F915F914F913F912F910F900BBE94
:102470000F900FBE0F901F9018951F920F920FB6DE
:102480000F9211240BB60F922F933F934F935F93AC
:102490006F937F938F939F93AF93BF93EF93FF932C
:1024A000E0917702F09178021995FF91EF91BF9139
:1024B000AF919F918F917F916F915F914F913F91DC
:1024C0002F910F900BBE0F900FBE0F901F9018957D
:1024D0001F920F920FB60F9211240BB60F922F93EB
:1024E0003F934F935F936F937F938F939F93AF939C
:1024F000BF93EF93FF93E0917502F09176021995E7
:10250000FF91EF91BF91AF919F918F917F916F91CB
:102510005F914F913F912F910F900BBE0F900FBE87
:102520000F901F9018951F920F920FB60F921124C3
:102530000BB60F922F933F934F935F936F937F93BD
:102540008F939F93AF93BF93EF93FF93E0917F029D
:10255000F09180021995FF91EF91BF91AF919F91FA
:102560008F917F916F915F914F913F912F910F903C
:102570000BBE0F900FBE0F901F9018951F920F92D9
:102580000FB60F9211240BB60F922F933F934F93D8
:102590005F936F937F938F939F93AF93BF93EF93CB
:1025A000FF93E0917D02F0917E021995FF91EF91EA
:1025B000BF91AF919F918F917F916F915F914F915B
:1025C0003F912F910F900BBE0F900FBE0F901F9059
:1025D00018951F920F920FB60F9211240BB60F92FF
:1025E0002F933F934F935F936F937F938F939F931B
:1025F000AF93BF93EF93FF93E0917B02F0917C0246
:102600001995FF91EF91BF91AF919F918F917F911C
:102610006F915F914F913F912F910F900BBE0F9053
:102620000FBE0F901F9018951F920F920FB60F922A
:1026300011240BB60F922F933F934F935F936F9399
:102640007F938F939F93AF93BF93EF93FF93E0910B
:102650007902F0917A021995FF91EF91BF91AF91B4
:102660009F918F917F916F915F914F913F912F91AA
:102670000F900BBE0F900FBE0F901F9018951F92DA
:102680000F920FB60F9211240BB60F922F933F9318
:102690004F935F936F937F938F939F93AF93BF936A
:1026A000EF93FF93E091EE05F091EF051995FF91FF
:1026B000EF91BF91AF919F918F917F916F915F91BA
:1026C0004F913F912F910F900BBE0F900FBE0F9027
:1026D0001F9018951F920F920FB60F9211240BB6F0
:1026E0000F922F933F934F935F936F937F938F93AB
:1026F0009F93AF93BF93EF93FF93E091EC05F0911D
:10270000ED051995FF91EF91BF91AF919F918F9139
:102710007F916F915F914F913F912F910F900BBEE1
:102720000F900FBE0F901F9018950F931F93CF938C
:10273000DF938C01EB01FB0101900020E9F7319759
:10274000E61BF70BEF3FF10551F048F04FEF50E07B
:102750000E94D72BF801E150FF4F108202C00E9467
:10276000D02BFE0101900020E9F7CF018C1B9D0BBF
:10277000800F911FDF91CF911F910F9108950FB698
:10278000F8940F928091FE059091FF050F900FBE77
:1027900008958091F3058F5F8093F3050895B2DB70
:1027A00018950F920FB6F8940F920BB60F920CB6C5
:1027B0000F921F9211242F923F924F925F926F922D
:1027C0007F928F929F92AF92BF92CF92DF92EF92C1
:1027D000FF920F931F932F933F934F935F936F93AA
:1027E0007F938F939F93AF93BF93CF93DF93EF9399
:1027F000FF93A0917508B09176080DB60D920EB6B4
:102800000D9241DAA0917508B0917608CD91CDBFB7
:10281000DD91DEBFFF91EF91DF91CF91BF91AF913D
:102820009F918F917F916F915F914F913F912F91E8
:102830001F910F91FF90EF90DF90CF90BF90AF90DE
:102840009F908F907F906F905F904F903F902F90D0
:102850001F900F900CBE0F900BBE0F900FBE0F90ED
:102860000895EF92FF920F931F93CF93DF93809180
:10287000F305811102C00E94BF1D0FB6F8940F929C
:102880008091F30581508093F3058091F3058823AF
:1028900011F080E04FC0809177088823D1F389E060
:1028A000F82EEE24E39480914608882341F1E091CC
:1028B0004B08F0914C08C681D781CE010C9689D87F
:1028C0008E010E5F1F4FC80184D89E8980917308C6
:1028D000891710F490937308F99EC0011124B80170
:1028E000815B974F0E945B1DE0917508F09176081F
:1028F0009E8986899817B8F2E092F205D4CF80912C
:10290000F005811108C08091F205813009F0C1CF36
:1029100048DF81E00FC0C1E08091F005882399F382
:102920003BDA8111C093F2058091F00581508093CC
:10293000F005F2CF0F900FBEDF91CF911F910F9155
:10294000FF90EF9008958091F405882331F121DF05
:10295000C0913D0886DFCC23B1F30FB6F8940F92F7
:10296000E0914208F0914308C681D781CE010296DA
:1029700030D8809177088150809377088091F40552
:1029800081508093F4050F900FBE8F89988D0E941F
:102990007C1DCE010E947C1DD6CF80914F088230D5
:1029A00090F2FFDED0CF0F931F93CF93DF93EC0114
:1029B000892B11F40E94BF1D8091750890917608B3
:1029C000C817D90789F10FB6F8940F928A859B85AD
:1029D0008453984039F58C899D8928E08634920784
:1029E00009F1892BF9F48E010E5F1F4FC8010E9477
:1029F000E90C9E8980917308891710F490937308ED
:102A000029E0929FC0011124B801815B974F0E9479
:102A10005B1DE0917508F09176089E89868998176C
:102A200008F0BFDE0F900FBEDF91CF911F910F9185
:102A300008950F931F93CF93DF93EC010FB6F89493
:102A40000F92892B21F4C0917508D09176088E01E0
:102A50000E5F1F4FC8010E94E90C8C899D89892B4C
:102A600021F0CE010C960E94E90CB80184E398E0B5
:102A70000E945B1D0F900FBE8091750890917608A3
:102A8000C817D907D9F480917408882339F0809148
:102A9000F30581110E94BF1D84DE1BC08091770861
:102AA00090913408981305C010927608109275081A
:102AB00010C0DF91CF911F910F91E5C880917408EC
:102AC000882339F00FB6F8940F920E94CE0C0F9025
:102AD0000FBEDF91CF911F910F910895CF93DF9398
:102AE000EC01892B11F45DDE19C08091F305811191
:102AF0000E94BF1D4EDE2091FE053091FF05C20FE2
:102B0000D31F809175089091760802960E94E90C77
:102B1000CE010E94440DA5DE882329F3DF91CF91D9
:102B200008950F931F93CF93DF938C01EB01892BB3
:102B300011F40E94BF1D2097E1F38091F3058111EC
:102B4000F8CF27DE4091FE055091FF05F801208166
:102B50003181C20FD31F4217530728F4C217D3077E
:102B600048F491E004C091E0C217D30720F04C175D
:102B70005D0708F090E0F801D183C083992351F0FC
:102B8000809175089091760802960E94E90CCE011A
:102B90000E94440D66DE811101C003DEDF91CF91FA
:102BA0001F910F910895FC01538D448D252F30E026
:102BB000842F90E0821B930B541710F0CF9608954A
:102BC00001970895FC01918D828D981761F0828D97
:102BD000DF01A80FB11D5D968C91928D9F5F9F7351
:102BE000928F90E008958FEF9FEF0895FC01918DF3
:102BF000828D981731F0828DE80FF11D858D90E060
:102C000008958FEF9FEF0895FC01918D228D892FFC
:102C100090E0805C9F4F821B91098F7399270895E4
:102C200088E798E0F1DF21E0892B09F420E0822F8A
:102C30000895FC01848DDF01A80FB11DA35ABF4F79
:102C40002C91848D90E001968F739927848FA689AB
:102C5000B7892C93A089B1898C9180648C93938DD2
:102C6000848D981306C00288F389E02D80818F7DC2
:102C700080830895EF92FF920F931F93CF93DF937A
:102C8000EC0181E0888F9B8D8C8D981305C0E889BD
:102C9000F989808185FD23C0F62E0B8D10E00F5F32
:102CA0001F4F0F731127E02E8C8DE8120BC00FB64B
:102CB00007FCFACFE889F989808185FFF5CFCE013D
:102CC000B8DFF2CF8B8DFE01E80FF11DE35AFF4F05
:102CD000F0820B8FEA89FB898081806207C0EE89D0
:102CE000FF896083E889F98980818064808381E03D
:102CF00090E0DF91CF911F910F91FF90EF90089599
:102D0000CF93DF93EC01888D8823C1F0EA89FB899A
:102D1000808185FD05C0A889B9898C9186FD0EC08A
:102D20000FB607FCF5CF808185FFF2CFA889B9895E
:102D30008C9185FFEDCFCE017CDFE8CFDF91CF9185
:102D4000089580E090E0892B19F06ADF811125C099
:102D500080E090E0892B41F080E090E0892B21F029
:102D60000E94000081111CC080E090E0892B41F09E
:102D700080E090E0892B21F00E940000811113C0B7
:102D800080E090E0892BA1F080E090E0892B81F039
:102D90000E94000081110AC008950E940000D8CF4F
:102DA0000E940000E1CF0E940000EACF0C940000D6
:102DB00008950E94BC2B1F920F920FB60F92112400
:102DC0000BB60F922F933F934F935F936F937F9325
:102DD0008F939F93AF93BF93EF93FF9388E798E010
:102DE00028DFFF91EF91BF91AF919F918F917F91DC
:102DF0006F915F914F913F912F910F900BBE0F906C
:102E00000FBE0F901F9018951F920F920FB60F9242
:102E100011240BB60F922F938F939F93EF93FF93F1
:102E2000E0918808F09189088081E0918E08F09106
:102E30008F0882FD12C09081809191088F5F8F73FF
:102E400020919208821751F0E0919108F0E0E85843
:102E5000F74F958F8093910801C08081FF91EF918A
:102E60009F918F912F910F900BBE0F900FBE0F90DF
:102E70001F901895CF93DF93282F30E0F901EE5182
:102E8000FE4F8491F901E456FE4FD491F901EA5ABC
:102E9000FE4FC491CC2389F0811196D8EC2FF0E03D
:102EA000EE0FFF1FE45CFE4FA591B491EC91ED2372
:102EB00081E090E021F480E002C080E090E0DF91CA
:102EC000CF91089585ED8093BC008091BC0084FD76
:102ED000FCCF10920A0808954091E407262F30E0B5
:102EE000240F311D21323105DCF420910A082430F1
:102EF000C9F4FC0180E090E0861758F43091E407B3
:102F00002191DC01AE53B84FA30FB11D2C93019654
:102F1000F3CF8091E407680F6093E40780E00895A1
:102F200081E0089582E0089508958FEF9FEF08955E
:102F30008FEF9FEF08958091C10790E09195819563
:102F400091090895CF93DF931F921F92CDB7DEB7FB
:102F5000CB01642F49835A83BFDF4981842F5A8173
:102F6000952F0F900F90DF91CF910895CF93DF931E
:102F70001F92CDB7DEB7698361E0CE010196ACDF69
:102F800081E090E00F90DF91CF910895089580E067
:102F900090E00895CF9382E16DDFC82F8093C00742
:102FA00083E168DF982F8093BF078C2F880F892BD0
:102FB0008093BE0720918D0230918E02220F331F25
:102FC000220F331F282B2093BD0791E02E3039F0BC
:102FD000273029F0213019F0283009F090E0409195
:102FE000890250918A0260918B0270918C02992320
:102FF00089F0452B462B472B69F04091890250916F
:103000008A0260918B0270918C02415051096109D2
:10301000710914C02D3031F0243021F0223011F02C
:103020002B30A1F44091890250918A0260918B0269
:1030300070918C024F5F5F4F6F4F7F4F40938902BB
:1030400050938A0260938B0270938C0290E090936D
:103050008E0280938D02CF91089591DBC1E082E2D0
:1030600009DF682F6C2782E205D88AE090E036DD20
:10307000F6CFCF93DF93CDB7DEB7E6970FB6F894D0
:10308000DEBF0FBECDBF68EE73E080E090E01DD9DB
:1030900076DB8FE992E00E943C219CA78BA7809170
:1030A0008802882321F088E3E0D8BC0104C0609145
:1030B0001F067091200680E090E00E94622A6B015A
:1030C0007C0180918702882311F087E301C08AE3A5
:1030D000CCD8BC01990F880B990B0E94642A4B0134
:1030E0005C0180918602882311F086E301C089E3A8
:1030F000BCD8BC01990F880B990B0E94642AEBE3A2
:10310000F6E040E050E04F5F5F4F0481158126817B
:1031100037810083118322833383DF01AC57BF4F94
:103120000D911D912D913C91139714970D931D9323
:103130002D933C931397AC57BF4F0D911D912D913B
:103140003C91139714970D931D932D933C931397D4
:1031500034964F315105B9F66093B7067093B806AF
:103160008093B9069093BA068092370790923807F9
:10317000A0923907B0923A07C092B707D092B80729
:10318000E092B907F092BA078091390690913A0619
:10319000803291052CF4019690933A06809339067B
:1031A0008091BB079091BC0701969093BC078093D8
:1031B000BB0747D782E090E00E94B72126E832E0C3
:1031C0003AA729A787ED92E098A78FA3A7EBB6E0CF
:1031D000BE8BAD8BE6E9F0E0FEA3EDA320EB34E07F
:1031E0003CA32BA3E12CF12CC70101969EA78DA730
:1031F00009960E947321A1E5B1E0BA83A9831C82DC
:103200001B82EBA1FCA1FE83ED8320E237E138872E
:103210002F8380EC93E09A878987A0E3B0E3BC8793
:10322000AB87E0E3F0E0FE87ED8726E030E0388B07
:103230002F871A8A198A1C8A1B8A44E150E0BE0132
:103240006F5F7F4F85E199E00E94F60485E199E088
:103250000E94EB04A9A5BAA51D91BAA7A9A7EFA141
:10326000F8A581919191A191B191F8A7EFA38F8FCA
:1032700098A3A9A3BAA32DA13EA1B901330F880B2E
:10328000990B0E94642A6B8F7C8F8D8F9E8F812F6C
:1032900090E09C01220F331F820F931F8E0D9F1D04
:1032A00024E1289FA001299F500D1124CA018D51AE
:1032B0009D4F4C0120E030E040EF52E46B8D7C8D5F
:1032C0008D8D9E8D0E9460298B019C0162E0A62E4F
:1032D000B12CCF8CD8A0E9A0FAA040E050E069E37F
:1032E00074E48CE090E00E941F22AD89BE89BC91FD
:1032F000BF8BED89FE8931802280F381F88F2D8983
:103300003E892C5731093A8F298F80913906909147
:103310003A0670E2A72EB12CA81AB90A8501000F4F
:10332000111F000F111FCB2ED32CE22CFF2E412C8E
:10333000512CB0E2AB16B10454F5F201E00FF11FCD
:10334000898D9A8DE80FF91F60807180828093804B
:103350009301A4016F89732D822D988D0E94C52938
:1033600087FD04C06F8A372C282C988E9301A40106
:10337000B601C7010E94142B181614F063017401E2
:103380009FEFA91AB90AA4E04A0E511CD2CF2F8987
:10339000332D422D588DB601C7010E94C5298823BF
:1033A00099F02F89332D422D588DB601C7010E9407
:1033B00060299B01AC0160E070E084EB92E40E9424
:1033C000C9292B013C0103C0412C512C32016F8DC6
:1033D00078A189A19AA1A7D790EE892E94E0992E81
:1033E000A12CB12CC12CD12C26E0E22EF12C00E036
:1033F00010E02FEF30E040EE51E06AE070E08CE04A
:1034000090E0DBD68091BB079091BC071F921F9282
:103410009F938F93A2EBB3E0BF93AF93A4E1B6E089
:10342000BF93AF930E94E62B34E1832E36E0932EB8
:1034300000E010E02FEF30E040EE51E064E670E095
:103440008CE090E0BAD68091390690913A0600E27D
:1034500010E0081B190BC801880F991F880F991FCE
:10346000298D3A8D280F391F3A8F298F0FB6F8947E
:10347000DEBF0FBECDBF0F3111050CF0A4C0B801E7
:10348000012E000C880B990B0E94642A2EEB37EF5B
:103490004EEB51E40E94182B6FA778AB89AB9AAB27
:1034A0000F5F1F4FB801012E000C880B990B0E9473
:1034B000642A2EEB37EF4EEB51E40E94182B6BABD6
:1034C0007CAB8DAB9EABA98DBA8D6D917D918D91AD
:1034D0009D91BA8FA98F2F89332D422D588D0E942F
:1034E00060299B01AC01C301B2010E94182B9B0112
:1034F000AC016B8D7C8D8D8D9E8D0E9460294B0162
:103500005C012F89332D422D588DE98DFA8D608114
:103510007181828193810E9460299B01AC01C3016A
:10352000B2010E94182B9B01AC016B8D7C8D8D8D9F
:103530009E8D0E9460296B017C0120E231E03A837C
:10354000298320E030E040E051E46FA578A989A903
:103550009AA90E94182B0E94312A7C836B8320E059
:1035600030E040E051E4C501B4010E94182B0E94F4
:10357000312A7E836D8320E030E040E051E46BA986
:103580007CA98DA99EA90E94182B0E94312A7887B8
:103590006F8320E030E040E051E4C701B6010E94B3
:1035A000182B0E94312A7A8769874AE050E0BE01D1
:1035B0006F5F7F4F85E199E00E94F60485E199E015
:1035C0000E94EB0458CFAD89BE896D917D918D919C
:1035D0009C910E94312A7F936F93A2EBB3E0BF933B
:1035E000AF9321E030E02C0F3D1F3F932F930E94BB
:1035F000E62B2F89332D422D588DAD89BE896D91D3
:103600007D918D919C910E9460299B01AC01C30129
:10361000B2010E94182B9B01AC016B8D7C8D8D8DAE
:103620009E8D0E9460298B019C01FE0131964F0105
:1036300086E0A82EB12CCF8CD8A0E9A0FAA040E05B
:1036400050E06BE374E48DE090E0F9D62BA13CA14F
:1036500020553B4F3CA32BA38DA19EA18A569F4F83
:103660009EA38DA3AD89BE89A058BF4FBE8BAD8BE5
:10367000EDA4FEA40F900F900F900F900F900F905D
:10368000B3E0EB16F10409F0AFCD8DE090E02BD65E
:1036900043EB51E06EEE72E08BA59CA5EED421D5F4
:1036A0002DE136E043E356E065E376E087E396E01C
:1036B000ECD380911D0690911E068B309105D1F0C0
:1036C0004CF40A9721F59091860281E08927809336
:1036D00086021DC08C309105A1F00D97C1F4809138
:1036E0000606909107065FD9809102069091030625
:1036F000A0D90DC09091870281E08927809387022D
:1037000006C09091880281E08927809388028AE030
:1037100090E0E4D9C4CCCF93DF93CDB7DEB72E973A
:103720000FB6F894DEBF0FBECDBF29D89E878D8718
:1037300068EE73E080E090E00E946511212CFFE0CC
:103740003F2E80911D0681500E9435110E94630416
:103750000E94312A709332066093310672D480E75A
:1037600091E09A8389838FEF9FEF9C838B838FEF08
:1037700090E09E838D8346E050E0BE016F5F7F4FF7
:1037800085E199E00E94F60485E199E00E94EB044E
:1037900060E070E0CB01C7D5612C712C16E0862D5E
:1037A000612F0E947B2B992349F02EE130E030936A
:1037B000300620932F0681E090E008C08CE390E073
:1037C0009093300680932F0682E090E0D0D58091D0
:1037D0002F069091300683599E4F23E231E03A83C1
:1037E000298320E83CE03C832B833E822D82E3E06A
:1037F000880F991FEA95E1F798878F8388E69BE009
:103800009A878987B301072C000C880B990B0E94BB
:10381000642A20E030E044EB52E40E94182B20E0C0
:1038200030E040EF51E40E94C92920E030E047E059
:1038300053E40E9461290E94312A7C876B874CE007
:1038400050E0BE016F5F7F4F85E199E00E94F60472
:1038500085E199E00E94EB049FEF691A790A2FE154
:103860006216710409F09BCFE0911D06F0911E06CF
:10387000EE0FFF1FE553FD4F80809180A12CB12CEE
:10388000C12CD12C66E0E62EF12C00E010E098016E
:1038900040E951E064E670E082E190E08ED48091EE
:1038A0001D0690911E06C5960E9481044C0174E08D
:1038B000E72EF12C00E010E0980140EF50E060E9C5
:1038C00071E082E190E079D44CE350E06CE271E089
:1038D00084E791E071D54CE050E06BE371E084E760
:1038E00091E06AD54CE050E06BE371E08BE891E049
:1038F00063D54CE050E06BE371E084EA91E05CD585
:10390000412C512C612C712C4AE06BE276E0C30112
:103910000E94E028C20165E070E00E949B2BCB0171
:103920000E9463040E94312A2BE2822E26E0922E0E
:1039300031EDA32EBB24B3946B0144E0E42EF12CB3
:1039400000E010E0980140EE51E060E971E080E1B4
:1039500090E033D43FEF631A730A81E0481A8CEF8A
:10396000580A96E06916710479F685E691E09A8323
:10397000898380E690E09C838B8344E050E0BE0125
:103980006F5F7F4F85E199E00E94F60485E199E041
:103990000E94EB0484E691E09A83898380E095E4B9
:1039A0009C838B838FEF90E09E838D8346E050E075
:1039B000BE016F5F7F4F85E199E00E94F60485E1CB
:1039C00099E00E94EB04809131069091320621E645
:1039D00031E03A83298320E83CE03C832B833E821C
:1039E0002D8220E33CE038872F839A8789874AE03D
:1039F00050E0BE016F5F7F4F85E199E00E94F604C1
:103A000085E199E00E94EB0486E090E06CD489EEB9
:103A1000882E84E0982EA12CB12CC12CD12C96E0BC
:103A2000E92EF12C00E010E0980140E951E064EF4C
:103A300071E080E190E0C1D354D323E236E045E267
:103A400056E067E276E089E296E01FD281E02091BD
:103A50002306309124062630310509F080E02091BC
:103A6000210630912206A9014F5F5F4F5093220635
:103A7000409321062536310514F48823B1F06EE118
:103A800070E089E190E049D376D31092220610923B
:103A9000210680910606909107060E94D31480911A
:103AA0000406909105060E94191562E370E0CE01AC
:103AB0000D9637D846CECF93DF939C01FB01DC01F6
:103AC0001196CD91DC911297D383C2838C819D8115
:103AD000958384838C819D81DC0113967C936E9306
:103AE00012977D836C8331872087F90180818F5FF6
:103AF0008083DF91CF910895CF93DF93009751F0AA
:103B0000EC010E94C913CE010E944828DF91CF9199
:103B10000C943114DF91CF9108958C01F89461E0F9
:103B20008DE00E94F910C0E0D0E0C017D107E4F4A6
:103B300061E08DE00E943A1080E899EAA3E0B0E0ED
:103B400000000197A109B109D9F760E08DE00E945A
:103B50003A1080E899EAA3E0B0E000000197A109DB
:103B6000B109D9F72196E1CF40E05AE668E170E06B
:103B700000004150510961097109D1F7D4CF81E0AA
:103B800090E0CBDF1F920F920FB60F9211240BB66D
:103B90000F922F933F934F935F936F937F938F93E6
:103BA0009F93AF93BF93EF93FF938091B900887F6A
:103BB000803609F49CC068F5883209F45BC090F443
:103BC000803109F454C038F4882309F4F6C08830F1
:103BD00009F44DC0F5C0883109F44CC0803209F4B5
:103BE0005DC0EEC0803409F468C048F4803309F445
:103BF00055C0883309F0E4C080930908D8C08035E7
:103C000009F44FC0883509F45DC0883409F0D8C084
:103C1000D6C0883909F4C7C0A8F4883709F467C04A
:103C200038F4883609F463C0803709F460C0C8C02E
:103C3000883809F4B8C0803909F45FC0803809F0C9
:103C4000BFC05BC0803B09F486C038F4803A09F4F9
:103C500066C0883A09F47FC0B3C0803C09F4A7C0AD
:103C6000883C09F4A4C0883B09F48AC0A9C08091AB
:103C70002F0810C090912E0880912D08981770F58C
:103C8000E0912E0881E08E0F80932E08F0E0E35F34
:103C9000F74F80818093BB0085EC86C08093090834
:103CA0008EC0E0912E0881E08E0F80932E088091C7
:103CB000BB00F0E0E35FF74F808390912E08809186
:103CC0002D086EC0E0912E0881E08E0F80932E08A3
:103CD0008091BB00F0E0E35FF74F808380910C0898
:103CE00081116DC081E080930B0884EA61C083E09C
:103CF00080930A0810920808CFCF8091080880327C
:103D000008F051C0E091080881E08E0F8093080808
:103D10008091BB00F0E0E851F84F8083BDCF85EC87
:103D20008093BC0010920A0880910808803230F419
:103D3000E0910808F0E0E851F84F1082609108081F
:103D400070E0E091E607F091E70788EE97E01995BB
:103D50001092080835C084E080930A081092E507A5
:103D60001092E407E091E207F091E3071995809142
:103D7000E407811105C081E08093E4071092C20737
:103D8000E091E50781E08E0F8093E507F0E0EE53C8
:103D9000F84F80818093BB009091E5078091E40704
:103DA000981708F479CF85E88093BC0009C085ECAA
:103DB0008093BC0010920A0803C01092090882D8B0
:103DC000FF91EF91BF91AF919F918F917F916F91F3
:103DD0005F914F913F912F910F900BBE0F900FBEAF
:103DE0000F901F901895EF92FF921F93CF93DF9340
:103DF000182FD8E0C0E0612F661F6627661F8BE092
:103E00000E943A108CE036D8CC0F7C01EC2ACE2DE3
:103E100061E08DE00E943A1060E08DE00E943A106F
:103E2000110FD15041F78E2DDF91CF911F91FF904F
:103E3000EF900895CF92DF92EF92FF920F931F932E
:103E4000CF93DF936C017A018B01C0E0D0E0CE15F7
:103E5000DF0589F0D8016D918D01D601ED91FC91BE
:103E60000190F081E02DC6011995892B11F47E0196
:103E700002C02196ECCFC701DF91CF911F910F9126
:103E8000FF90EF90DF90CF900895AF92BF92CF92C6
:103E9000DF92EF92FF920F931F93CF93DF931F92C6
:103EA0001F92CDB7DEB75C016B017A01890182E018
:103EB00093E09A83898342E050E0BE016F5F7F4FB9
:103EC00085E199E00E94F6046AE070E085E199E0FE
:103ED0000E94B004E5E1F9E0818590E0982F882701
:103EE0002085822BD5018D939C93838590E0982F1C
:103EF00088272285822BD6018D939C93858590E01F
:103F0000982F88272485822BD7018D939C938785B2
:103F100090E0982F88272685822BD8018D939C933B
:103F2000868197810F900F90DF91CF911F910F9114
:103F3000FF90EF90DF90CF90BF90AF9008950097E3
:103F400061F0FC0101900020E9F73197AF01481BB7
:103F5000590BBC0188E798E06DCF80E090E00895B0
:103F60008F929F92AF92BF920F931F93CF93DF9345
:103F7000CDB7DEB7A1970FB6F894DEBF0FBECDBFA9
:103F800019A2423008F44AE08E010F5D1F4F842EC3
:103F9000912CA12CB12CA50194010E942F29E62F70
:103FA000B901CA0101501109EA3014F4E05D01C001
:103FB000E95CD801EC93232B242B252B61F7C80156
:103FC000BEDFA1960FB6F894DEBF0FBECDBFDF9166
:103FD000CF911F910F91BF90AF909F908F900895B8
:103FE000CF93DF93CDB7DEB7C450D1400FB6F8946E
:103FF000DEBF0FBECDBF86E593E09A83898367E07D
:1040000075E0CE0103960E949513FC011082118287
:104010000296BE016F5F7F4FAC01461B570B85E1D7
:1040200099E00E94F60485E199E00E94EB04CC5FE0
:10403000DE4F0FB6F894DEBF0FBECDBFDF91CF913C
:104040000895CF93DF931F921F92CDB7DEB780E81C
:1040500091E09A83898342E050E0BE016F5F7F4F19
:1040600085E199E00E94F60485E199E00E94EB0465
:104070000F900F90DF91CF910895CF93DF93CDB73D
:10408000DEB728970FB6F894DEBF0FBECDBF20E194
:1040900031E03A8329839C838B8383E0660F771F0B
:1040A0008A95E1F77E836D8393E0440F551F9A95BF
:1040B000E1F758874F8348E050E0BE016F5F7F4FC4
:1040C00085E199E00E94F60485E199E00E94EB0405
:1040D00028960FB6F894DEBF0FBECDBFDF91CF910B
:1040E0000895CF93DF931F921F92CDB7DEB781E87B
:1040F00091E09A83898342E050E0BE016F5F7F4F79
:1041000085E199E00E94F60485E199E00E94EB04C4
:104110000F900F90DF91CF910895CF93DF93CDB79C
:10412000DEB72A970FB6F894DEBF0FBECDBF24E5E9
:1041300032E03A8329839C838B838CE390E09E83D7
:104140008D8378876F831A8619864AE050E0BE0116
:104150006F5F7F4F85E199E00E94F60485E199E069
:104160000E94EB042A960FB6F894DEBF0FBECDBFB7
:10417000DF91CF910895CF93DF9300D01F92CDB7F9
:10418000DEB785E592E09A83898381E090E09C83A5
:104190008B8344E050E0BE016F5F7F4F85E199E083
:1041A0000E94F60485E199E00E94EB040F900F90C5
:1041B0000F900F90DF91CF9108958F929F92AF92C1
:1041C000BF92CF92DF92EF92FF920F931F93CF9304
:1041D000DF93CDB7DEB7C251D1400FB6F894DEBF42
:1041E0000FBECDBFE1E0F1E0FA83E9839C838B83CE
:1041F00083E0660F771F8A95E1F77E836D8393E0F6
:10420000440F551F9A95E1F758874F831A870987FE
:104210003C872B87FE86ED86D88ACF8623E0AA0CC2
:10422000BB1C2A95E1F7BA8AA98AB401CE0143964C
:104230000E949513BE016F5F7F4FAC01461B570B69
:1042400085E199E00E94F60485E199E00E94EB0483
:10425000CE5EDE4F0FB6F894DEBF0FBECDBFDF914E
:10426000CF911F910F91FF90EF90DF90CF90BF9073
:10427000AF909F908F9008950F931F93CF93DF93EC
:10428000CDB7DEB7C450D1400FB6F894DEBF0FBE35
:10429000CDBF8C0187E593E09A8389836DE275E059
:1042A000CE0103960E949513FC0100831183AC019B
:1042B0004E5F5F4FBE016F5F7F4F461B570B85E11F
:1042C00099E00E94F60485E199E00E94EB04CC5F3E
:1042D000DE4F0FB6F894DEBF0FBECDBFDF91CF919A
:1042E0001F910F910895CF93DF9300D01F92CDB708
:1042F000DEB720E033E03A8329839C838B8344E05C
:1043000050E0BE016F5F7F4F85E199E00E94F604A7
:1043100085E199E00E94EB040F900F900F900F90B1
:10432000DF91CF910895CF93DF9300D000D0CDB728
:10433000DEB724E231E03A8329837C836B839E835A
:104340008D8346E050E0BE016F5F7F4F85E199E0CD
:104350000E94F60485E199E00E94EB0426960FB6D0
:10436000F894DEBF0FBECDBFDF91CF910895CF93FC
:10437000DF9300D01F92CDB7DEB725E231E03A835C
:10438000298323E0880F991F2A95E1F79C838B836B
:1043900044E050E0BE016F5F7F4F85E199E00E94ED
:1043A000F60485E199E00E94EB040F900F900F90C6
:1043B0000F90DF91CF910895CF93DF93CDB7DEB704
:1043C00060970FB6F894DEBF0FBECDBF22E231E09A
:1043D0003A83298323E0880F991F2A95E1F79C836C
:1043E0008B8333E0660F771F3A95E1F77E836D8309
:1043F00063E0440F551F6A95E1F758874F831A868B
:1044000019861C861B868EE091E09E878D87188A10
:104410001F8640E150E0BE016F5F7F4F85E199E06C
:104420000E94F60485E199E00E94EB0460960FB6C5
:10443000F894DEBF0FBECDBFDF91CF9108954F92AC
:104440005F926F927F928F929F92AF92BF92CF9224
:10445000DF92EF92FF920F931F93CF93DF93CDB72D
:10446000DEB7C651D1400FB6F894DEBF0FBECDBF48
:10447000CD5EDE4F488359836A837B83C351D1402D
:104480002801390121E031E03A8329839C838B8321
:1044900020E030E040E051E4CD5EDE4F688179817C
:1044A0008A819B81C351D1400E94182BDAD77E8329
:1044B0006D8320E030E040E051E4C301B2010E948E
:1044C000182BCFD778876F83DA86C986FC86EB8670
:1044D000BE86AD86188A1F861A8A198AB401CE0153
:1044E00043960E949513BE016F5F7F4FAC01461B40
:1044F000570B85E199E00E94F60485E199E00E945E
:10450000EB04CA5EDE4F0FB6F894DEBF0FBECDBF20
:10451000DF91CF911F910F91FF90EF90DF90CF909F
:10452000BF90AF909F908F907F906F905F904F90D3
:1045300008957F928F929F92AF92BF92CF92DF9217
:10454000EF92FF920F931F93CF93DF935C01762E30
:10455000C72EEA01D22E892B09F411DB822F90E0BD
:104560000497DCF70E94C913CE01FDD44C010E94D0
:1045700031148114910419F482E090E0CEDA0E94A3
:10458000C91389E290E0EFD47C010E943114E11458
:10459000F10491F3D70158969C928E925797AE01F1
:1045A00065EA70E0C4010E94C92BFE013197E80D55
:1045B000F91DB701675E7F4FA72DBC2DCD01089671
:1045C0009D014D91EB014993BE01E9012881222310
:1045D00019F0A817B907A1F7D70190961C928D2D55
:1045E000B3E0BD1508F483E0E7018E8B89A31AA21E
:1045F0001B861A861D8A1C8AF986E88624E030E02C
:10460000A901481B51095D874C87FB8AEA8A1BA2D6
:104610001CA21DA21EA218A61FA291E19083DF0179
:10462000119782E28C93119723E32C931197AC920C
:104630001197BC9211971C9211971C92119720E828
:104640002C9311971C9211971C9211971C92119701
:1046500022E02C93119723E02C93119724E02C93C4
:10466000119725E02C93119726E02C93119727E0C2
:104670002C93119728E02C93119729E02C931197F4
:1046800020E12C9311979C93119792E19C931197A1
:1046900093E19C93119794E19C93119795E19C93DE
:1046A000119796E19C93119797E19C93119798E14C
:1046B0009C93119799E19C93119790E29C93119789
:1046C00091E29C9311978C93119783E28C931197AD
:1046D0001C9211971C92119786E28C93119787E296
:1046E0008C93119788E28C93119789E28C931197A0
:1046F00080E38C93119781E38C93B997F983E883D6
:104700000115110519F0F801F182E0820FB6F89455
:104710000F92809177088F5F80937708809175085A
:1047200090917608892B09F091C0F0927608E0927A
:10473000750880917708813009F097C0EFE4F8E0C0
:104740004FEF5FEF9F012D5F3F4F328321838FEF4C
:104750009FEF5483438336832583308727831082DA
:10476000399628E0E337F20769F727E23AE0309319
:10477000260A2093250A9093280A8093270A3093CB
:104780002A0A2093290A30932C0A20932B0A10928C
:10479000240A2EE13AE030931D0A20931C0A9093DC
:1047A0001F0A80931E0A3093210A2093200A309317
:1047B000230A2093220A10921B0A29E438E030933E
:1047C00048082093470890934A08809349083093FB
:1047D0004C0820934B0830934E0820934D081092BC
:1047E000460820E438E030933F0820933E08909339
:1047F0004108809340083093430820934208309347
:1048000045082093440810923D0827E338E0309390
:1048100036082093350890933808809337083093F2
:104820003A082093390830933C0820933B081092B3
:10483000340884E29AE090933308809332088BE145
:104840009AE090933108809330080FC080917408EB
:1048500081110BC0E0917508F09176088689D81611
:1048600020F0F0927608E092750880912D0A8F5F13
:1048700080932D0AD70156968C91909173089817C2
:1048800010F480937308B7016E5F7F4FB9E08B9F80
:10489000C0011124815B974F0ED90F900FBE8091FC
:1048A0007408882349F0E0917508F09176088689AC
:1048B0008D1510F40E94D11381E0DF91CF911F91EB
:1048C0000F91FF90EF90DF90CF90BF90AF909F90AF
:1048D0008F907F900895EF92FF921F93CF93DF9375
:1048E000D8E0C0E01FEF612F661F6627661F8BE0D0
:1048F0000E943A108CE00E943A17CC0F7C01EC2AFF
:10490000CE2D61E08DE00E943A1060E08DE00E94C3
:104910003A10110FD15039F78E2DDF91CF911F91A1
:10492000FF90EF900895CF93DF931F921F92CDB722
:10493000DEB7789484B5826084BD84B5816084BD1F
:1049400085B5826085BD85B5816085BD80916E002D
:10495000816080936E00109281008091810082605E
:10496000809381008091810081608093810080919B
:1049700080008160809380008091B100846080938A
:10498000B1008091B00081608093B000809191006F
:10499000826080939100809191008160809391006A
:1049A000809190008160809390008091A10082604E
:1049B0008093A1008091A10081608093A1008091EB
:1049C000A00081608093A00080912101826080938B
:1049D000210180912101816080932101809120013A
:1049E00081608093200180917A00846080937A00B6
:1049F00080917A00826080937A0080917A00816051
:104A000080937A0080917A00806880937A00109277
:104A1000C10010927402E0918808F091890812E0B8
:104A20001083E0918408F09185081082E091860857
:104A3000F09187088FEC808310929008E0918C08A9
:104A4000F0918D0886E08083E0918A08F0918B08D0
:104A5000808180618083E0918A08F0918B08808159
:104A600088608083E0918A08F0918B08808180685B
:104A70008083E0918A08F0918B0880818F7D80830C
:104A80002091850230E040E050E060E271EA87E08A
:104A900090E0C9D380E18093810010928000BA0138
:104AA000A901E3E0440F551F661F771FEA95D1F770
:104AB0004115510521E06207710540F481E08093C2
:104AC0000F0650930E0640930D0622C04115510566
:104AD00088E06807710560F410930F06DB01CA01D6
:104AE00033E0B695A795979587953A95D1F70CC081
:104AF00083E080930F06DB01CA0126E0B695A795F7
:104B0000979587952A95D1F790930E0680930D0679
:104B100080910D0690910E069093870080938600F9
:104B200080910F0680618093810080E180939100E5
:104B30001092900081E080930C0680EF9EE19093AC
:104B40000B0680930A06909397008093960081E16C
:104B50008093910062E084E00E94F91060E082E1BD
:104B60000E94F91060E083E10E94F9102AEC37E11D
:104B70003093800220937F02809169008F7380645C
:104B800080936900EB9A30937E0220937D0280919E
:104B900069008F7C806180936900EA9A61E080916E
:104BA00019090E94F91060E080911A090E94F91019
:104BB00061E0809119090E943A1083E894E0BFD91E
:104BC00087E994E0BCD961E08BE00E94F91062E0D3
:104BD0008CE00E94F91061E08DE00E94F91060E025
:104BE0008DE00E943A1060E08BE00E943A1061E094
:104BF000809119090E94F91060E080911A090E94C1
:104C0000F91061E0809119090E943A1061E070E0AA
:104C100080E090E00E94651185E199E00E94EB043C
:104C20008231944309F049C0CC24C394D12C1A8218
:104C3000198242E050E0BE016F5F7F4F85E199E04D
:104C40000E94F60485E199E00E94EB047C01DA827F
:104C5000C98242E050E0BE016F5F7F4F85E199E07D
:104C60000E94F60485E199E00E94EB048C018AE938
:104C700094E065D9B70180E090E040E171D987E91F
:104C800094E05DD98EE994E05AD9B80180E090E0D3
:104C900040E166D987E994E052D987E994E04FD999
:104CA000EF2809F0C4CF0F371D4109F0C0CF82EAC9
:104CB00094E045D987E994E042D992D98C01C1D9D1
:104CC00040E050E060E070E0C801D7D90ADA84E043
:104CD0000E943A17892B39F468E270E087E490E08B
:104CE0001CDA49DA0ED11FE161E0812F0E94F91030
:104CF0001F5F1233C9F71FE16BE470E080E090E0C2
:104D00000E94651161E0812F0E943A101F5F1233EB
:104D100099F71FE16BE470E080E090E00E9465117C
:104D200060E0812F0E943A101F5F123399F708E06C
:104D300016E021E048EC50E069EA74E08CE791E08D
:104D4000F8DB813031F480910806909109060E94C9
:104D5000191506E016E021E048EC50E065EB74E040
:104D60008DE395E0E6DB04E016E021E048EC50E05E
:104D700060EC74E08BE89BE1DCDB813031F4809106
:104D80000406909105060E94191502E016E021E044
:104D900048EC50E061E973E089E398E1CADB8130D7
:104DA00031F480910206909103060E94191502E1E8
:104DB00016E021E048EC50E06CEC74E08DE298E104
:104DC000B8DB813031F480911206909113060E9475
:104DD000191500E116E020E044E650E06BED74E0C8
:104DE00083EA94E1A6DB813009F043C0F8942FEF09
:104DF0003FEF3093010620930006809374081092D1
:104E0000FF051092FE0587BD80916E008260809341
:104E10006E00A0917508B0917608CD91CDBFDD915F
:104E2000DEBFFF91EF91DF91CF91BF91AF919F9145
:104E30008F917F916F915F914F913F912F911F9132
:104E40000F91FF90EF90DF90CF90BF90AF909F9029
:104E50008F907F906F905F904F903F902F901F901A
:104E60000F900CBE0F900BBE0F900FBE0F900895C9
:104E700004C0811102C00E94BF1DFFCFE8E7F8E027
:104E80001382128288EE93E0A0E0B0E084839583E1
:104E9000A683B7832FE533E03183208325EC30E010
:104EA0003587248724EC30E03787268720EC30E0F4
:104EB000318B208B21EC30E0338B228B22EC30E0E5
:104EC000358B248B26EC30E0378B268B118E128E9F
:104ED000138E148EE5E1F9E021E733E0318320837E
:104EE0002AE0248323E02583EEE2FAE01382128293
:104EF00084839583A683B7838DE793E09183808332
:104F00000895CF93DF93CDB7DEB7C450D1400FB62D
:104F1000F894DEBF0FBECDBF86E592E09A83898309
:104F20006AE175E0CE0103960E94951321E0FC0131
:104F3000208311820296BE016F5F7F4FAC01461B3A
:104F4000570B85E199E00E94F60485E199E00E9403
:104F5000EB04CC5FDE4F0FB6F894DEBF0FBECDBFC3
:104F6000DF91CF910895CF93DF938230910510F4B4
:104F700082E090E0E0913C0AF0913D0A20E030E0D0
:104F8000C0E0D0E0309711F14081518148175907B6
:104F9000C0F04817590761F482819381209719F076
:104FA0009B838A832BC090933D0A80933C0A26C042
:104FB0002115310519F04217530718F49A01BE0163
:104FC000DF01EF010280F381E02DDCCF21153105F7
:104FD00009F1281B390B2430310590F412968D917C
:104FE0009C9113976115710521F0FB0193838283D6
:104FF00004C090933D0A80933C0AFD01329644C060
:10500000FD01E20FF31F81939193225031092D93FB
:105010003C933AC020913A0A30913B0A232B41F449
:10502000209191023091920230933B0A20933A0AE8
:1050300020918F02309190022115310541F42DB756
:105040003EB74091930250919402241B350BE0919E
:105050003A0AF0913B0AE217F307A0F42E1B3F0B2C
:105060002817390778F0AC014E5F5F4F24173507DA
:1050700048F04E0F5F1F50933B0A40933A0A8193CA
:10508000919302C0E0E0F0E0CF01DF91CF9108956D
:105090000F931F93CF93DF93009709F48CC0FC010B
:1050A00032971382128200913C0A10913D0A011539
:1050B000110581F420813181820F931F20913A0ADA
:1050C00030913B0A2817390779F5F0933B0AE093B2
:1050D0003A0A71C0D80140E050E0AE17BF0750F463
:1050E00012962D913C911397AD012115310509F1CF
:1050F000D901F3CF9D01DA0133832283608171816D
:10510000860F971F8217930769F4EC012881398174
:10511000260F371F2E5F3F4F318320838A819B816B
:1051200093838283452B29F4F0933D0AE0933C0A54
:1051300042C01396FC93EE931297ED014991599159
:105140009E01240F351FE217F30771F480819181CE
:10515000840F951F029611969C938E938281938162
:1051600013969C938E931297E0E0F0E0D80112968C
:105170008D919C911397009719F0F8018C01F6CF4F
:105180008D919C9198012E5F3F4F820F931F20912C
:105190003A0A30913B0A2817390769F4309729F405
:1051A00010923D0A10923C0A02C0138212821093A0
:1051B0003B0A00933A0ADF91CF911F910F91089516
:1051C000BB274A3031F4992322F4BDE290958195B2
:1051D0009F4F01C0BB27FB015527AA27880F991FA6
:1051E000AA1FA41710F0A41B83955051B9F7A05D16
:1051F000AA3308F0A95DA193009779F7B111B19393
:105200001192CB0100C0DC01FC01672F7191772363
:10521000E1F7329704C07C916D9370836291AE1771
:10522000BF07C8F30895052E97FB16F400940FD01E
:1052300057FD05D014D007FC02D046F408C05095A5
:105240004095309521953F4F4F4F5F4F0895909572
:105250008095709561957F4F8F4F9F4F0895A1E284
:105260001A2EAA1BBB1BFD010DC0AA1FBB1FEE1FE0
:10527000FF1FA217B307E407F50720F0A21BB30B2B
:10528000E40BF50B661F771F881F991F1A9469F7A7
:1052900060957095809590959B01AC01BD01CF0103
:1052A0000895A29FB001B39FC001A39F700D811DFF
:1052B0001124911DB29F700D811D1124911D08951F
:1052C0005058BB27AA270ED075C166D130F06BD1DC
:1052D00020F031F49F3F11F41EF45BC10EF4E09511
:1052E000E7FB51C1E92F77D180F3BA176207730743
:1052F0008407950718F071F49EF58FC10EF4E095C0
:105300000B2EBA2FA02D0B01B90190010C01CA017F
:10531000A0011124FF27591B99F0593F50F4503E2A
:1053200068F11A16F040A22F232F342F4427585F1C
:10533000F3CF469537952795A795F0405395C9F734
:105340007EF41F16BA0B620B730B840BBAF09150EC
:10535000A1F0FF0FBB1F661F771F881FC2F70EC08B
:10536000BA0F621F731F841F48F48795779567955E
:10537000B795F7959E3F08F0B3CF9395880F08F047
:105380009927EE0F979587950895D9D008F481E075
:1053900008950CD00FC107D140F0FED030F021F4B9
:1053A0005F3F19F0F0C0511139C1F3C014D198F327
:1053B0009923C9F35523B1F3951B550BBB27AA2796
:1053C00062177307840738F09F5F5F4F220F331F08
:1053D000441FAA1FA9F333D00E2E3AF0E0E830D0D4
:1053E00091505040E695001CCAF729D0FE2F27D0D7
:1053F000660F771F881FBB1F261737074807AB07A5
:10540000B0E809F0BB0B802DBF01FF2793585F4F19
:105410002AF09E3F510568F0B6C000C15F3FECF333
:10542000983EDCF3869577956795B795F7959F5FDE
:10543000C9F7880F911D9695879597F90895E1E032
:10544000660F771F881FBB1F621773078407BA0791
:1054500020F0621B730B840BBA0BEE1F88F7E095EC
:10546000089504D06894B111D9C00895BCD088F0D3
:105470009F5790F0B92F9927B751A0F0D1F0660F40
:10548000771F881F991F1AF0BA95C9F712C0B1305B
:1054900081F0C3D0B1E00895C0C0672F782F88276E
:1054A000B85F39F0B93FCCF3869577956795B3959A
:1054B000D9F73EF490958095709561957F4F8F4F09
:1054C0009F4F0895E89409C097FB3EF4909580950E
:1054D000709561957F4F8F4F9F4F9923A9F0F92FBA
:1054E00096E9BB279395F695879577956795B79538
:1054F000F111F8CFFAF4BB0F11F460FF1BC06F5F1E
:105500007F4F8F4F9F4F16C0882311F096E911C02F
:10551000772321F09EE8872F762F05C0662371F050
:1055200096E8862F70E060E02AF09A95660F771F64
:10553000881FDAF7880F9695879597F90895990F40
:105540000008550FAA0BE0E8FEEF16161706E8074D
:10555000F907C0F012161306E407F50798F0621B6E
:10556000730B840B950B39F40A2661F0232B242B43
:10557000252B21F408950A2609F4A140A6958FEF62
:10558000811D811D089597F99F6780E870E060E0B4
:1055900008959FEF80EC089500240A9416161706CC
:1055A00018060906089500240A9412161306140614
:1055B00005060895092E0394000C11F4882352F077
:1055C000BB0F40F4BF2B11F460FF04C06F5F7F4F2F
:1055D0008F4F9F4F089557FD9058440F551F59F016
:1055E0005F3F71F04795880F97FB991F61F09F3FD0
:1055F00079F087950895121613061406551FF2CFF9
:105600004695F1DF08C0161617061806991FF1CF48
:1056100086957105610508940895E894BB2766276F
:105620007727CB0197F908958ADF08F48FEF089563
:105630000BD0C0CFB1DF28F0B6DF18F0952309F00A
:10564000A2CFA7CF1124EACFC6DFA0F3959FD1F355
:10565000950F50E0551F629FF001729FBB27F00D20
:10566000B11D639FAA27F00DB11DAA1F649F662775
:10567000B00DA11D661F829F2227B00DA11D621FC4
:10568000739FB00DA11D621F839FA00D611D221F7E
:10569000749F3327A00D611D231F849F600D211D62
:1056A000822F762F6A2F11249F5750408AF0E1F005
:1056B00088234AF0EE0FFF1FBB1F661F771F881F4E
:1056C00091505040A9F79E3F510570F05CCFA6CF96
:1056D0005F3FECF3983EDCF3869577956795B79539
:1056E000F795E7959F5FC1F7FE2B880F911D969563
:1056F000879597F90895991B79E004C0991F96172B
:1057000008F0961B881F7A95C9F780950895AA1B03
:10571000BB1B51E107C0AA1FBB1FA617B70710F09C
:10572000A61BB70B881F991F5A95A9F780959095CE
:10573000BC01CD01089597FB072E16F4009406D006
:1057400077FD08D0E4DF07FC05D03EF49095819505
:105750009F4F0895709561957F4F0895EE0FFF1F3D
:10576000881F8BBF0790F691E02D19949ADDB7FF43
:105770000895821B930B089581E090E0F894EFC2A6
:10578000FB01DC0102C001900D9241505040D8F75E
:105790000895DC0101C06D9341505040E0F7089539
:1057A000FB01DC0101900D920020E1F70895FB015F
:1057B000DC014150504048F001900D920020C9F7A3
:1057C00001C01D9241505040E0F708950F931F9380
:1057D000CF93DF93CDB7DEB72E970FB6F894DEBF29
:1057E0000FBECDBF0E891F8986E08C831A83098383
:1057F0008FEF9FE79E838D83AE01465E5F4F688D7E
:10580000798DCE01019611D02F813885F801E20FF4
:10581000F31F10822E960FB6F894DEBF0FBECDBFD9
:10582000DF91CF911F910F9108952F923F924F9248
:105830005F926F927F928F929F92AF92BF92CF9220
:10584000DF92EF92FF920F931F93CF93DF93CDB729
:10585000DEB72C970FB6F894DEBF0FBECDBF7C012C
:105860006B018A01FC0117821682838181FFB0C11E
:10587000CE0101964C01F7019381F60193FD8591CC
:1058800093FF81916F01882309F49EC1853239F419
:1058900093FD859193FF81916F01853221F4B701CA
:1058A00090E0C7D1E8CF512C312C20E02032A0F479
:1058B0008B3269F030F4803259F0833269F4206120
:1058C0002CC08D3239F0803339F4216026C022603B
:1058D000246023C0286021C027FD27C030ED380F89
:1058E0003A3078F426FF06C0FAE05F9E300D1124AE
:1058F000532E13C08AE0389E300D1124332E2062BF
:105900000CC08E3221F426FD5FC1206406C08C36A7
:1059100011F4206802C0883641F4F60193FD8591A8
:1059200093FF81916F018111C1CF982F9F7D955475
:10593000933028F40C5F1F4FFFE3F9830DC08336CB
:1059400031F0833771F0833509F057C021C0F80179
:10595000808189830E5F1F4F44244394512C54014E
:1059600014C03801F2E06F0E711CF801A080B18004
:1059700026FF03C0652D70E002C06FEF7FEFC50109
:105980002C874CD12C0183012C852F77222E16C019
:105990003801F2E06F0E711CF801A080B18026FF83
:1059A00003C0652D70E002C06FEF7FEFC5012C874B
:1059B0002AD12C012C852068222E830123FC19C0BA
:1059C000832D90E048165906A0F4B70180E290E0DC
:1059D00030D13A94F5CFF50127FC859127FE8191CE
:1059E0005F01B70190E025D131103A94F1E04F1AF0
:1059F00051084114510479F7DEC0843611F089361C
:105A000031F5F80127FF07C06081718182819381A0
:105A10000C5F1F4F08C060817181072E000C880B3E
:105A2000990B0E5F1F4F2F76722E97FF09C090952E
:105A30008095709561957F4F8F4F9F4F2068722E94
:105A40002AE030E0A4012DD1A82EA81843C0853744
:105A500029F42F7EB22E2AE030E025C0F22FF97F04
:105A6000BF2E8F36C1F018F4883579F0ADC080377D
:105A700019F0883721F0A8C02F2F2061B22EB4FE74
:105A80000DC08B2D8460B82E09C024FF0AC09F2F43
:105A90009660B92E06C028E030E005C020E130E075
:105AA00002C020E132E0F801B7FE07C060817181D9
:105AB000828193810C5F1F4F06C06081718180E0FD
:105AC00090E00E5F1F4FA401ECD0A82EA818FB2D6C
:105AD000FF777F2E76FE0BC0372D3E7FA51450F446
